{
	"data": {
		"bytecode": {
			"linkReferences": {},
			"object": "6080604052601e5f55601e600155348015610018575f80fd5b50610534806100265f395ff3fe608060405234801561000f575f80fd5b506004361061003f575f3560e01c80632a1afcd91461004357806373d4a13a14610061578063de2927891461007f575b5f80fd5b61004b61009d565b6040516100589190610253565b60405180910390f35b6100696100a2565b6040516100769190610253565b60405180910390f35b6100876100a8565b60405161009491906102f6565b60405180910390f35b5f5481565b60015481565b60605f600190505f600290505f81836100c19190610343565b90506100cc816100d4565b935050505090565b60605f820361011a576040518060400160405280600181526020017f30000000000000000000000000000000000000000000000000000000000000008152509050610236565b5f8290505f5b5f821461014957808061013290610376565b915050600a8261014291906103ea565b9150610120565b5f8167ffffffffffffffff8111156101645761016361041a565b5b6040519080825280601f01601f1916602001820160405280156101965781602001600182028036833780820191505090505b5090505f6001836101a79190610447565b90505b5f861461022e57600a866101be919061047a565b60306101ca9190610343565b60f81b8282806101d9906104aa565b9350815181106101ec576101eb6104d1565b5b60200101907effffffffffffffffffffffffffffffffffffffffffffffffffffffffffffff191690815f1a905350600a8661022791906103ea565b95506101aa565b819450505050505b919050565b5f819050919050565b61024d8161023b565b82525050565b5f6020820190506102665f830184610244565b92915050565b5f81519050919050565b5f82825260208201905092915050565b5f5b838110156102a3578082015181840152602081019050610288565b5f8484015250505050565b5f601f19601f8301169050919050565b5f6102c88261026c565b6102d28185610276565b93506102e2818560208601610286565b6102eb816102ae565b840191505092915050565b5f6020820190508181035f83015261030e81846102be565b905092915050565b7f4e487b71000000000000000000000000000000000000000000000000000000005f52601160045260245ffd5b5f61034d8261023b565b91506103588361023b565b92508282019050808211156103705761036f610316565b5b92915050565b5f6103808261023b565b91507fffffffffffffffffffffffffffffffffffffffffffffffffffffffffffffffff82036103b2576103b1610316565b5b600182019050919050565b7f4e487b71000000000000000000000000000000000000000000000000000000005f52601260045260245ffd5b5f6103f48261023b565b91506103ff8361023b565b92508261040f5761040e6103bd565b5b828204905092915050565b7f4e487b71000000000000000000000000000000000000000000000000000000005f52604160045260245ffd5b5f6104518261023b565b915061045c8361023b565b925082820390508181111561047457610473610316565b5b92915050565b5f6104848261023b565b915061048f8361023b565b92508261049f5761049e6103bd565b5b828206905092915050565b5f6104b48261023b565b91505f82036104c6576104c5610316565b5b600182039050919050565b7f4e487b71000000000000000000000000000000000000000000000000000000005f52603260045260245ffdfea2646970667358221220bc3b3b9f18a2966504baad2b486a4f9070dbfb77db9226d87823b848d024f62b64736f6c63430008160033",
			"opcodes": "PUSH1 0x80 PUSH1 0x40 MSTORE PUSH1 0x1E PUSH0 SSTORE PUSH1 0x1E PUSH1 0x1 SSTORE CALLVALUE DUP1 ISZERO PUSH2 0x18 JUMPI PUSH0 DUP1 REVERT JUMPDEST POP PUSH2 0x534 DUP1 PUSH2 0x26 PUSH0 CODECOPY PUSH0 RETURN INVALID PUSH1 0x80 PUSH1 0x40 MSTORE CALLVALUE DUP1 ISZERO PUSH2 0xF JUMPI PUSH0 DUP1 REVERT JUMPDEST POP PUSH1 0x4 CALLDATASIZE LT PUSH2 0x3F JUMPI PUSH0 CALLDATALOAD PUSH1 0xE0 SHR DUP1 PUSH4 0x2A1AFCD9 EQ PUSH2 0x43 JUMPI DUP1 PUSH4 0x73D4A13A EQ PUSH2 0x61 JUMPI DUP1 PUSH4 0xDE292789 EQ PUSH2 0x7F JUMPI JUMPDEST PUSH0 DUP1 REVERT JUMPDEST PUSH2 0x4B PUSH2 0x9D JUMP JUMPDEST PUSH1 0x40 MLOAD PUSH2 0x58 SWAP2 SWAP1 PUSH2 0x253 JUMP JUMPDEST PUSH1 0x40 MLOAD DUP1 SWAP2 SUB SWAP1 RETURN JUMPDEST PUSH2 0x69 PUSH2 0xA2 JUMP JUMPDEST PUSH1 0x40 MLOAD PUSH2 0x76 SWAP2 SWAP1 PUSH2 0x253 JUMP JUMPDEST PUSH1 0x40 MLOAD DUP1 SWAP2 SUB SWAP1 RETURN JUMPDEST PUSH2 0x87 PUSH2 0xA8 JUMP JUMPDEST PUSH1 0x40 MLOAD PUSH2 0x94 SWAP2 SWAP1 PUSH2 0x2F6 JUMP JUMPDEST PUSH1 0x40 MLOAD DUP1 SWAP2 SUB SWAP1 RETURN JUMPDEST PUSH0 SLOAD DUP2 JUMP JUMPDEST PUSH1 0x1 SLOAD DUP2 JUMP JUMPDEST PUSH1 0x60 PUSH0 PUSH1 0x1 SWAP1 POP PUSH0 PUSH1 0x2 SWAP1 POP PUSH0 DUP2 DUP4 PUSH2 0xC1 SWAP2 SWAP1 PUSH2 0x343 JUMP JUMPDEST SWAP1 POP PUSH2 0xCC DUP2 PUSH2 0xD4 JUMP JUMPDEST SWAP4 POP POP POP POP SWAP1 JUMP JUMPDEST PUSH1 0x60 PUSH0 DUP3 SUB PUSH2 0x11A JUMPI PUSH1 0x40 MLOAD DUP1 PUSH1 0x40 ADD PUSH1 0x40 MSTORE DUP1 PUSH1 0x1 DUP2 MSTORE PUSH1 0x20 ADD PUSH32 0x3000000000000000000000000000000000000000000000000000000000000000 DUP2 MSTORE POP SWAP1 POP PUSH2 0x236 JUMP JUMPDEST PUSH0 DUP3 SWAP1 POP PUSH0 JUMPDEST PUSH0 DUP3 EQ PUSH2 0x149 JUMPI DUP1 DUP1 PUSH2 0x132 SWAP1 PUSH2 0x376 JUMP JUMPDEST SWAP2 POP POP PUSH1 0xA DUP3 PUSH2 0x142 SWAP2 SWAP1 PUSH2 0x3EA JUMP JUMPDEST SWAP2 POP PUSH2 0x120 JUMP JUMPDEST PUSH0 DUP2 PUSH8 0xFFFFFFFFFFFFFFFF DUP2 GT ISZERO PUSH2 0x164 JUMPI PUSH2 0x163 PUSH2 0x41A JUMP JUMPDEST JUMPDEST PUSH1 0x40 MLOAD SWAP1 DUP1 DUP3 MSTORE DUP1 PUSH1 0x1F ADD PUSH1 0x1F NOT AND PUSH1 0x20 ADD DUP3 ADD PUSH1 0x40 MSTORE DUP1 ISZERO PUSH2 0x196 JUMPI DUP2 PUSH1 0x20 ADD PUSH1 0x1 DUP3 MUL DUP1 CALLDATASIZE DUP4 CALLDATACOPY DUP1 DUP3 ADD SWAP2 POP POP SWAP1 POP JUMPDEST POP SWAP1 POP PUSH0 PUSH1 0x1 DUP4 PUSH2 0x1A7 SWAP2 SWAP1 PUSH2 0x447 JUMP JUMPDEST SWAP1 POP JUMPDEST PUSH0 DUP7 EQ PUSH2 0x22E JUMPI PUSH1 0xA DUP7 PUSH2 0x1BE SWAP2 SWAP1 PUSH2 0x47A JUMP JUMPDEST PUSH1 0x30 PUSH2 0x1CA SWAP2 SWAP1 PUSH2 0x343 JUMP JUMPDEST PUSH1 0xF8 SHL DUP3 DUP3 DUP1 PUSH2 0x1D9 SWAP1 PUSH2 0x4AA JUMP JUMPDEST SWAP4 POP DUP2 MLOAD DUP2 LT PUSH2 0x1EC JUMPI PUSH2 0x1EB PUSH2 0x4D1 JUMP JUMPDEST JUMPDEST PUSH1 0x20 ADD ADD SWAP1 PUSH31 0xFFFFFFFFFFFFFFFFFFFFFFFFFFFFFFFFFFFFFFFFFFFFFFFFFFFFFFFFFFFFFF NOT AND SWAP1 DUP2 PUSH0 BYTE SWAP1 MSTORE8 POP PUSH1 0xA DUP7 PUSH2 0x227 SWAP2 SWAP1 PUSH2 0x3EA JUMP JUMPDEST SWAP6 POP PUSH2 0x1AA JUMP JUMPDEST DUP2 SWAP5 POP POP POP POP POP JUMPDEST SWAP2 SWAP1 POP JUMP JUMPDEST PUSH0 DUP2 SWAP1 POP SWAP2 SWAP1 POP JUMP JUMPDEST PUSH2 0x24D DUP2 PUSH2 0x23B JUMP JUMPDEST DUP3 MSTORE POP POP JUMP JUMPDEST PUSH0 PUSH1 0x20 DUP3 ADD SWAP1 POP PUSH2 0x266 PUSH0 DUP4 ADD DUP5 PUSH2 0x244 JUMP JUMPDEST SWAP3 SWAP2 POP POP JUMP JUMPDEST PUSH0 DUP2 MLOAD SWAP1 POP SWAP2 SWAP1 POP JUMP JUMPDEST PUSH0 DUP3 DUP3 MSTORE PUSH1 0x20 DUP3 ADD SWAP1 POP SWAP3 SWAP2 POP POP JUMP JUMPDEST PUSH0 JUMPDEST DUP4 DUP2 LT ISZERO PUSH2 0x2A3 JUMPI DUP1 DUP3 ADD MLOAD DUP2 DUP5 ADD MSTORE PUSH1 0x20 DUP2 ADD SWAP1 POP PUSH2 0x288 JUMP JUMPDEST PUSH0 DUP5 DUP5 ADD MSTORE POP POP POP POP JUMP JUMPDEST PUSH0 PUSH1 0x1F NOT PUSH1 0x1F DUP4 ADD AND SWAP1 POP SWAP2 SWAP1 POP JUMP JUMPDEST PUSH0 PUSH2 0x2C8 DUP3 PUSH2 0x26C JUMP JUMPDEST PUSH2 0x2D2 DUP2 DUP6 PUSH2 0x276 JUMP JUMPDEST SWAP4 POP PUSH2 0x2E2 DUP2 DUP6 PUSH1 0x20 DUP7 ADD PUSH2 0x286 JUMP JUMPDEST PUSH2 0x2EB DUP2 PUSH2 0x2AE JUMP JUMPDEST DUP5 ADD SWAP2 POP POP SWAP3 SWAP2 POP POP JUMP JUMPDEST PUSH0 PUSH1 0x20 DUP3 ADD SWAP1 POP DUP2 DUP2 SUB PUSH0 DUP4 ADD MSTORE PUSH2 0x30E DUP2 DUP5 PUSH2 0x2BE JUMP JUMPDEST SWAP1 POP SWAP3 SWAP2 POP POP JUMP JUMPDEST PUSH32 0x4E487B7100000000000000000000000000000000000000000000000000000000 PUSH0 MSTORE PUSH1 0x11 PUSH1 0x4 MSTORE PUSH1 0x24 PUSH0 REVERT JUMPDEST PUSH0 PUSH2 0x34D DUP3 PUSH2 0x23B JUMP JUMPDEST SWAP2 POP PUSH2 0x358 DUP4 PUSH2 0x23B JUMP JUMPDEST SWAP3 POP DUP3 DUP3 ADD SWAP1 POP DUP1 DUP3 GT ISZERO PUSH2 0x370 JUMPI PUSH2 0x36F PUSH2 0x316 JUMP JUMPDEST JUMPDEST SWAP3 SWAP2 POP POP JUMP JUMPDEST PUSH0 PUSH2 0x380 DUP3 PUSH2 0x23B JUMP JUMPDEST SWAP2 POP PUSH32 0xFFFFFFFFFFFFFFFFFFFFFFFFFFFFFFFFFFFFFFFFFFFFFFFFFFFFFFFFFFFFFFFF DUP3 SUB PUSH2 0x3B2 JUMPI PUSH2 0x3B1 PUSH2 0x316 JUMP JUMPDEST JUMPDEST PUSH1 0x1 DUP3 ADD SWAP1 POP SWAP2 SWAP1 POP JUMP JUMPDEST PUSH32 0x4E487B7100000000000000000000000000000000000000000000000000000000 PUSH0 MSTORE PUSH1 0x12 PUSH1 0x4 MSTORE PUSH1 0x24 PUSH0 REVERT JUMPDEST PUSH0 PUSH2 0x3F4 DUP3 PUSH2 0x23B JUMP JUMPDEST SWAP2 POP PUSH2 0x3FF DUP4 PUSH2 0x23B JUMP JUMPDEST SWAP3 POP DUP3 PUSH2 0x40F JUMPI PUSH2 0x40E PUSH2 0x3BD JUMP JUMPDEST JUMPDEST DUP3 DUP3 DIV SWAP1 POP SWAP3 SWAP2 POP POP JUMP JUMPDEST PUSH32 0x4E487B7100000000000000000000000000000000000000000000000000000000 PUSH0 MSTORE PUSH1 0x41 PUSH1 0x4 MSTORE PUSH1 0x24 PUSH0 REVERT JUMPDEST PUSH0 PUSH2 0x451 DUP3 PUSH2 0x23B JUMP JUMPDEST SWAP2 POP PUSH2 0x45C DUP4 PUSH2 0x23B JUMP JUMPDEST SWAP3 POP DUP3 DUP3 SUB SWAP1 POP DUP2 DUP2 GT ISZERO PUSH2 0x474 JUMPI PUSH2 0x473 PUSH2 0x316 JUMP JUMPDEST JUMPDEST SWAP3 SWAP2 POP POP JUMP JUMPDEST PUSH0 PUSH2 0x484 DUP3 PUSH2 0x23B JUMP JUMPDEST SWAP2 POP PUSH2 0x48F DUP4 PUSH2 0x23B JUMP JUMPDEST SWAP3 POP DUP3 PUSH2 0x49F JUMPI PUSH2 0x49E PUSH2 0x3BD JUMP JUMPDEST JUMPDEST DUP3 DUP3 MOD SWAP1 POP SWAP3 SWAP2 POP POP JUMP JUMPDEST PUSH0 PUSH2 0x4B4 DUP3 PUSH2 0x23B JUMP JUMPDEST SWAP2 POP PUSH0 DUP3 SUB PUSH2 0x4C6 JUMPI PUSH2 0x4C5 PUSH2 0x316 JUMP JUMPDEST JUMPDEST PUSH1 0x1 DUP3 SUB SWAP1 POP SWAP2 SWAP1 POP JUMP JUMPDEST PUSH32 0x4E487B7100000000000000000000000000000000000000000000000000000000 PUSH0 MSTORE PUSH1 0x32 PUSH1 0x4 MSTORE PUSH1 0x24 PUSH0 REVERT INVALID LOG2 PUSH5 0x6970667358 0x22 SLT KECCAK256 0xBC EXTCODESIZE EXTCODESIZE SWAP16 XOR LOG2 SWAP7 PUSH6 0x4BAAD2B486A 0x4F SWAP1 PUSH17 0xDBFB77DB9226D87823B848D024F62B6473 PUSH16 0x6C634300081600330000000000000000 "
		},
		"gasEstimates": {
			"creation": {
				"codeDepositCost": "266400",
				"executionCost": "44515",
				"totalCost": "310915"
			},
			"external": {
				"data()": "2425",
				"getResult()": "infinite",
				"storedData()": "2402"
			},
			"internal": {
				"intToString(uint256)": "infinite"
			}
		},
		"methodIdentifiers": {
			"data()": "73d4a13a",
			"getResult()": "de292789",
			"storedData()": "2a1afcd9"
		}
	},
	"abi": [
		{
			"inputs": [],
			"stateMutability": "nonpayable",
			"type": "constructor"
		},
		{
			"inputs": [],
			"name": "data",
			"outputs": [
				{
					"internalType": "uint256",
					"name": "",
					"type": "uint256"
				}
			],
			"stateMutability": "view",
			"type": "function"
		},
		{
			"inputs": [],
			"name": "getResult",
			"outputs": [
				{
					"internalType": "string",
					"name": "",
					"type": "string"
				}
			],
			"stateMutability": "pure",
			"type": "function"
		},
		{
			"inputs": [],
			"name": "storedData",
			"outputs": [
				{
					"internalType": "uint256",
					"name": "",
					"type": "uint256"
				}
			],
			"stateMutability": "view",
			"type": "function"
		}
	]
}