{
	"data": {
		"bytecode": {
			"linkReferences": {},
			"object": "60806040526040518060400160405280600481526020017f74657374000000000000000000000000000000000000000000000000000000008152505f90816200004991906200032c565b506040518060400160405280600581526020017f7465737432000000000000000000000000000000000000000000000000000000815250600190816200009091906200032c565b507f7465737433000000000000000000000000000000000000000000000000000000600255348015620000c1575f80fd5b5062000410565b5f81519050919050565b7f4e487b71000000000000000000000000000000000000000000000000000000005f52604160045260245ffd5b7f4e487b71000000000000000000000000000000000000000000000000000000005f52602260045260245ffd5b5f60028204905060018216806200014457607f821691505b6020821081036200015a5762000159620000ff565b5b50919050565b5f819050815f5260205f209050919050565b5f6020601f8301049050919050565b5f82821b905092915050565b5f60088302620001be7fffffffffffffffffffffffffffffffffffffffffffffffffffffffffffffffff8262000181565b620001ca868362000181565b95508019841693508086168417925050509392505050565b5f819050919050565b5f819050919050565b5f620002146200020e6200020884620001e2565b620001eb565b620001e2565b9050919050565b5f819050919050565b6200022f83620001f4565b620002476200023e826200021b565b8484546200018d565b825550505050565b5f90565b6200025d6200024f565b6200026a81848462000224565b505050565b5b818110156200029157620002855f8262000253565b60018101905062000270565b5050565b601f821115620002e057620002aa8162000160565b620002b58462000172565b81016020851015620002c5578190505b620002dd620002d48562000172565b8301826200026f565b50505b505050565b5f82821c905092915050565b5f620003025f1984600802620002e5565b1980831691505092915050565b5f6200031c8383620002f1565b9150826002028217905092915050565b6200033782620000c8565b67ffffffffffffffff811115620003535762000352620000d2565b5b6200035f82546200012c565b6200036c82828562000295565b5f60209050601f831160018114620003a2575f84156200038d578287015190505b6200039985826200030f565b86555062000408565b601f198416620003b28662000160565b5f5b82811015620003db57848901518255600182019150602085019450602081019050620003b4565b86831015620003fb5784890151620003f7601f891682620002f1565b8355505b6001600288020188555050505b505050505050565b6104ee806200041e5f395ff3fe608060405234801561000f575f80fd5b5060043610610029575f3560e01c80634f8dd50d1461002d575b5f80fd5b610047600480360381019061004291906101fb565b61005d565b60405161005491906102b0565b60405180910390f35b60605f82036100a3576040518060400160405280600181526020017f300000000000000000000000000000000000000000000000000000000000000081525090506101bf565b5f808390505b5f81146100d25781806100bb906102fd565b925050600a816100cb9190610371565b90506100a9565b5f8267ffffffffffffffff8111156100ed576100ec6103a1565b5b6040519080825280601f01601f19166020018201604052801561011f5781602001600182028036833780820191505090505b5090505f60018461013091906103ce565b90505b5f86146101b757600a866101479190610401565b60306101539190610431565b60f81b82828061016290610464565b9350815181106101755761017461048b565b5b60200101907effffffffffffffffffffffffffffffffffffffffffffffffffffffffffffff191690815f1a905350600a866101b09190610371565b9550610133565b819450505050505b919050565b5f80fd5b5f819050919050565b6101da816101c8565b81146101e4575f80fd5b50565b5f813590506101f5816101d1565b92915050565b5f602082840312156102105761020f6101c4565b5b5f61021d848285016101e7565b91505092915050565b5f81519050919050565b5f82825260208201905092915050565b5f5b8381101561025d578082015181840152602081019050610242565b5f8484015250505050565b5f601f19601f8301169050919050565b5f61028282610226565b61028c8185610230565b935061029c818560208601610240565b6102a581610268565b840191505092915050565b5f6020820190508181035f8301526102c88184610278565b905092915050565b7f4e487b71000000000000000000000000000000000000000000000000000000005f52601160045260245ffd5b5f610307826101c8565b91507fffffffffffffffffffffffffffffffffffffffffffffffffffffffffffffffff8203610339576103386102d0565b5b600182019050919050565b7f4e487b71000000000000000000000000000000000000000000000000000000005f52601260045260245ffd5b5f61037b826101c8565b9150610386836101c8565b92508261039657610395610344565b5b828204905092915050565b7f4e487b71000000000000000000000000000000000000000000000000000000005f52604160045260245ffd5b5f6103d8826101c8565b91506103e3836101c8565b92508282039050818111156103fb576103fa6102d0565b5b92915050565b5f61040b826101c8565b9150610416836101c8565b92508261042657610425610344565b5b828206905092915050565b5f61043b826101c8565b9150610446836101c8565b925082820190508082111561045e5761045d6102d0565b5b92915050565b5f61046e826101c8565b91505f82036104805761047f6102d0565b5b600182039050919050565b7f4e487b71000000000000000000000000000000000000000000000000000000005f52603260045260245ffdfea2646970667358221220fa5897047bc4faa323a098be9076221c99e8011a911f0c79ac8de20401388bd164736f6c63430008160033",
			"opcodes": "PUSH1 0x80 PUSH1 0x40 MSTORE PUSH1 0x40 MLOAD DUP1 PUSH1 0x40 ADD PUSH1 0x40 MSTORE DUP1 PUSH1 0x4 DUP2 MSTORE PUSH1 0x20 ADD PUSH32 0x7465737400000000000000000000000000000000000000000000000000000000 DUP2 MSTORE POP PUSH0 SWAP1 DUP2 PUSH3 0x49 SWAP2 SWAP1 PUSH3 0x32C JUMP JUMPDEST POP PUSH1 0x40 MLOAD DUP1 PUSH1 0x40 ADD PUSH1 0x40 MSTORE DUP1 PUSH1 0x5 DUP2 MSTORE PUSH1 0x20 ADD PUSH32 0x7465737432000000000000000000000000000000000000000000000000000000 DUP2 MSTORE POP PUSH1 0x1 SWAP1 DUP2 PUSH3 0x90 SWAP2 SWAP1 PUSH3 0x32C JUMP JUMPDEST POP PUSH32 0x7465737433000000000000000000000000000000000000000000000000000000 PUSH1 0x2 SSTORE CALLVALUE DUP1 ISZERO PUSH3 0xC1 JUMPI PUSH0 DUP1 REVERT JUMPDEST POP PUSH3 0x410 JUMP JUMPDEST PUSH0 DUP2 MLOAD SWAP1 POP SWAP2 SWAP1 POP JUMP JUMPDEST PUSH32 0x4E487B7100000000000000000000000000000000000000000000000000000000 PUSH0 MSTORE PUSH1 0x41 PUSH1 0x4 MSTORE PUSH1 0x24 PUSH0 REVERT JUMPDEST PUSH32 0x4E487B7100000000000000000000000000000000000000000000000000000000 PUSH0 MSTORE PUSH1 0x22 PUSH1 0x4 MSTORE PUSH1 0x24 PUSH0 REVERT JUMPDEST PUSH0 PUSH1 0x2 DUP3 DIV SWAP1 POP PUSH1 0x1 DUP3 AND DUP1 PUSH3 0x144 JUMPI PUSH1 0x7F DUP3 AND SWAP2 POP JUMPDEST PUSH1 0x20 DUP3 LT DUP2 SUB PUSH3 0x15A JUMPI PUSH3 0x159 PUSH3 0xFF JUMP JUMPDEST JUMPDEST POP SWAP2 SWAP1 POP JUMP JUMPDEST PUSH0 DUP2 SWAP1 POP DUP2 PUSH0 MSTORE PUSH1 0x20 PUSH0 KECCAK256 SWAP1 POP SWAP2 SWAP1 POP JUMP JUMPDEST PUSH0 PUSH1 0x20 PUSH1 0x1F DUP4 ADD DIV SWAP1 POP SWAP2 SWAP1 POP JUMP JUMPDEST PUSH0 DUP3 DUP3 SHL SWAP1 POP SWAP3 SWAP2 POP POP JUMP JUMPDEST PUSH0 PUSH1 0x8 DUP4 MUL PUSH3 0x1BE PUSH32 0xFFFFFFFFFFFFFFFFFFFFFFFFFFFFFFFFFFFFFFFFFFFFFFFFFFFFFFFFFFFFFFFF DUP3 PUSH3 0x181 JUMP JUMPDEST PUSH3 0x1CA DUP7 DUP4 PUSH3 0x181 JUMP JUMPDEST SWAP6 POP DUP1 NOT DUP5 AND SWAP4 POP DUP1 DUP7 AND DUP5 OR SWAP3 POP POP POP SWAP4 SWAP3 POP POP POP JUMP JUMPDEST PUSH0 DUP2 SWAP1 POP SWAP2 SWAP1 POP JUMP JUMPDEST PUSH0 DUP2 SWAP1 POP SWAP2 SWAP1 POP JUMP JUMPDEST PUSH0 PUSH3 0x214 PUSH3 0x20E PUSH3 0x208 DUP5 PUSH3 0x1E2 JUMP JUMPDEST PUSH3 0x1EB JUMP JUMPDEST PUSH3 0x1E2 JUMP JUMPDEST SWAP1 POP SWAP2 SWAP1 POP JUMP JUMPDEST PUSH0 DUP2 SWAP1 POP SWAP2 SWAP1 POP JUMP JUMPDEST PUSH3 0x22F DUP4 PUSH3 0x1F4 JUMP JUMPDEST PUSH3 0x247 PUSH3 0x23E DUP3 PUSH3 0x21B JUMP JUMPDEST DUP5 DUP5 SLOAD PUSH3 0x18D JUMP JUMPDEST DUP3 SSTORE POP POP POP POP JUMP JUMPDEST PUSH0 SWAP1 JUMP JUMPDEST PUSH3 0x25D PUSH3 0x24F JUMP JUMPDEST PUSH3 0x26A DUP2 DUP5 DUP5 PUSH3 0x224 JUMP JUMPDEST POP POP POP JUMP JUMPDEST JUMPDEST DUP2 DUP2 LT ISZERO PUSH3 0x291 JUMPI PUSH3 0x285 PUSH0 DUP3 PUSH3 0x253 JUMP JUMPDEST PUSH1 0x1 DUP2 ADD SWAP1 POP PUSH3 0x270 JUMP JUMPDEST POP POP JUMP JUMPDEST PUSH1 0x1F DUP3 GT ISZERO PUSH3 0x2E0 JUMPI PUSH3 0x2AA DUP2 PUSH3 0x160 JUMP JUMPDEST PUSH3 0x2B5 DUP5 PUSH3 0x172 JUMP JUMPDEST DUP2 ADD PUSH1 0x20 DUP6 LT ISZERO PUSH3 0x2C5 JUMPI DUP2 SWAP1 POP JUMPDEST PUSH3 0x2DD PUSH3 0x2D4 DUP6 PUSH3 0x172 JUMP JUMPDEST DUP4 ADD DUP3 PUSH3 0x26F JUMP JUMPDEST POP POP JUMPDEST POP POP POP JUMP JUMPDEST PUSH0 DUP3 DUP3 SHR SWAP1 POP SWAP3 SWAP2 POP POP JUMP JUMPDEST PUSH0 PUSH3 0x302 PUSH0 NOT DUP5 PUSH1 0x8 MUL PUSH3 0x2E5 JUMP JUMPDEST NOT DUP1 DUP4 AND SWAP2 POP POP SWAP3 SWAP2 POP POP JUMP JUMPDEST PUSH0 PUSH3 0x31C DUP4 DUP4 PUSH3 0x2F1 JUMP JUMPDEST SWAP2 POP DUP3 PUSH1 0x2 MUL DUP3 OR SWAP1 POP SWAP3 SWAP2 POP POP JUMP JUMPDEST PUSH3 0x337 DUP3 PUSH3 0xC8 JUMP JUMPDEST PUSH8 0xFFFFFFFFFFFFFFFF DUP2 GT ISZERO PUSH3 0x353 JUMPI PUSH3 0x352 PUSH3 0xD2 JUMP JUMPDEST JUMPDEST PUSH3 0x35F DUP3 SLOAD PUSH3 0x12C JUMP JUMPDEST PUSH3 0x36C DUP3 DUP3 DUP6 PUSH3 0x295 JUMP JUMPDEST PUSH0 PUSH1 0x20 SWAP1 POP PUSH1 0x1F DUP4 GT PUSH1 0x1 DUP2 EQ PUSH3 0x3A2 JUMPI PUSH0 DUP5 ISZERO PUSH3 0x38D JUMPI DUP3 DUP8 ADD MLOAD SWAP1 POP JUMPDEST PUSH3 0x399 DUP6 DUP3 PUSH3 0x30F JUMP JUMPDEST DUP7 SSTORE POP PUSH3 0x408 JUMP JUMPDEST PUSH1 0x1F NOT DUP5 AND PUSH3 0x3B2 DUP7 PUSH3 0x160 JUMP JUMPDEST PUSH0 JUMPDEST DUP3 DUP2 LT ISZERO PUSH3 0x3DB JUMPI DUP5 DUP10 ADD MLOAD DUP3 SSTORE PUSH1 0x1 DUP3 ADD SWAP2 POP PUSH1 0x20 DUP6 ADD SWAP5 POP PUSH1 0x20 DUP2 ADD SWAP1 POP PUSH3 0x3B4 JUMP JUMPDEST DUP7 DUP4 LT ISZERO PUSH3 0x3FB JUMPI DUP5 DUP10 ADD MLOAD PUSH3 0x3F7 PUSH1 0x1F DUP10 AND DUP3 PUSH3 0x2F1 JUMP JUMPDEST DUP4 SSTORE POP JUMPDEST PUSH1 0x1 PUSH1 0x2 DUP9 MUL ADD DUP9 SSTORE POP POP POP JUMPDEST POP POP POP POP POP POP JUMP JUMPDEST PUSH2 0x4EE DUP1 PUSH3 0x41E PUSH0 CODECOPY PUSH0 RETURN INVALID PUSH1 0x80 PUSH1 0x40 MSTORE CALLVALUE DUP1 ISZERO PUSH2 0xF JUMPI PUSH0 DUP1 REVERT JUMPDEST POP PUSH1 0x4 CALLDATASIZE LT PUSH2 0x29 JUMPI PUSH0 CALLDATALOAD PUSH1 0xE0 SHR DUP1 PUSH4 0x4F8DD50D EQ PUSH2 0x2D JUMPI JUMPDEST PUSH0 DUP1 REVERT JUMPDEST PUSH2 0x47 PUSH1 0x4 DUP1 CALLDATASIZE SUB DUP2 ADD SWAP1 PUSH2 0x42 SWAP2 SWAP1 PUSH2 0x1FB JUMP JUMPDEST PUSH2 0x5D JUMP JUMPDEST PUSH1 0x40 MLOAD PUSH2 0x54 SWAP2 SWAP1 PUSH2 0x2B0 JUMP JUMPDEST PUSH1 0x40 MLOAD DUP1 SWAP2 SUB SWAP1 RETURN JUMPDEST PUSH1 0x60 PUSH0 DUP3 SUB PUSH2 0xA3 JUMPI PUSH1 0x40 MLOAD DUP1 PUSH1 0x40 ADD PUSH1 0x40 MSTORE DUP1 PUSH1 0x1 DUP2 MSTORE PUSH1 0x20 ADD PUSH32 0x3000000000000000000000000000000000000000000000000000000000000000 DUP2 MSTORE POP SWAP1 POP PUSH2 0x1BF JUMP JUMPDEST PUSH0 DUP1 DUP4 SWAP1 POP JUMPDEST PUSH0 DUP2 EQ PUSH2 0xD2 JUMPI DUP2 DUP1 PUSH2 0xBB SWAP1 PUSH2 0x2FD JUMP JUMPDEST SWAP3 POP POP PUSH1 0xA DUP2 PUSH2 0xCB SWAP2 SWAP1 PUSH2 0x371 JUMP JUMPDEST SWAP1 POP PUSH2 0xA9 JUMP JUMPDEST PUSH0 DUP3 PUSH8 0xFFFFFFFFFFFFFFFF DUP2 GT ISZERO PUSH2 0xED JUMPI PUSH2 0xEC PUSH2 0x3A1 JUMP JUMPDEST JUMPDEST PUSH1 0x40 MLOAD SWAP1 DUP1 DUP3 MSTORE DUP1 PUSH1 0x1F ADD PUSH1 0x1F NOT AND PUSH1 0x20 ADD DUP3 ADD PUSH1 0x40 MSTORE DUP1 ISZERO PUSH2 0x11F JUMPI DUP2 PUSH1 0x20 ADD PUSH1 0x1 DUP3 MUL DUP1 CALLDATASIZE DUP4 CALLDATACOPY DUP1 DUP3 ADD SWAP2 POP POP SWAP1 POP JUMPDEST POP SWAP1 POP PUSH0 PUSH1 0x1 DUP5 PUSH2 0x130 SWAP2 SWAP1 PUSH2 0x3CE JUMP JUMPDEST SWAP1 POP JUMPDEST PUSH0 DUP7 EQ PUSH2 0x1B7 JUMPI PUSH1 0xA DUP7 PUSH2 0x147 SWAP2 SWAP1 PUSH2 0x401 JUMP JUMPDEST PUSH1 0x30 PUSH2 0x153 SWAP2 SWAP1 PUSH2 0x431 JUMP JUMPDEST PUSH1 0xF8 SHL DUP3 DUP3 DUP1 PUSH2 0x162 SWAP1 PUSH2 0x464 JUMP JUMPDEST SWAP4 POP DUP2 MLOAD DUP2 LT PUSH2 0x175 JUMPI PUSH2 0x174 PUSH2 0x48B JUMP JUMPDEST JUMPDEST PUSH1 0x20 ADD ADD SWAP1 PUSH31 0xFFFFFFFFFFFFFFFFFFFFFFFFFFFFFFFFFFFFFFFFFFFFFFFFFFFFFFFFFFFFFF NOT AND SWAP1 DUP2 PUSH0 BYTE SWAP1 MSTORE8 POP PUSH1 0xA DUP7 PUSH2 0x1B0 SWAP2 SWAP1 PUSH2 0x371 JUMP JUMPDEST SWAP6 POP PUSH2 0x133 JUMP JUMPDEST DUP2 SWAP5 POP POP POP POP POP JUMPDEST SWAP2 SWAP1 POP JUMP JUMPDEST PUSH0 DUP1 REVERT JUMPDEST PUSH0 DUP2 SWAP1 POP SWAP2 SWAP1 POP JUMP JUMPDEST PUSH2 0x1DA DUP2 PUSH2 0x1C8 JUMP JUMPDEST DUP2 EQ PUSH2 0x1E4 JUMPI PUSH0 DUP1 REVERT JUMPDEST POP JUMP JUMPDEST PUSH0 DUP2 CALLDATALOAD SWAP1 POP PUSH2 0x1F5 DUP2 PUSH2 0x1D1 JUMP JUMPDEST SWAP3 SWAP2 POP POP JUMP JUMPDEST PUSH0 PUSH1 0x20 DUP3 DUP5 SUB SLT ISZERO PUSH2 0x210 JUMPI PUSH2 0x20F PUSH2 0x1C4 JUMP JUMPDEST JUMPDEST PUSH0 PUSH2 0x21D DUP5 DUP3 DUP6 ADD PUSH2 0x1E7 JUMP JUMPDEST SWAP2 POP POP SWAP3 SWAP2 POP POP JUMP JUMPDEST PUSH0 DUP2 MLOAD SWAP1 POP SWAP2 SWAP1 POP JUMP JUMPDEST PUSH0 DUP3 DUP3 MSTORE PUSH1 0x20 DUP3 ADD SWAP1 POP SWAP3 SWAP2 POP POP JUMP JUMPDEST PUSH0 JUMPDEST DUP4 DUP2 LT ISZERO PUSH2 0x25D JUMPI DUP1 DUP3 ADD MLOAD DUP2 DUP5 ADD MSTORE PUSH1 0x20 DUP2 ADD SWAP1 POP PUSH2 0x242 JUMP JUMPDEST PUSH0 DUP5 DUP5 ADD MSTORE POP POP POP POP JUMP JUMPDEST PUSH0 PUSH1 0x1F NOT PUSH1 0x1F DUP4 ADD AND SWAP1 POP SWAP2 SWAP1 POP JUMP JUMPDEST PUSH0 PUSH2 0x282 DUP3 PUSH2 0x226 JUMP JUMPDEST PUSH2 0x28C DUP2 DUP6 PUSH2 0x230 JUMP JUMPDEST SWAP4 POP PUSH2 0x29C DUP2 DUP6 PUSH1 0x20 DUP7 ADD PUSH2 0x240 JUMP JUMPDEST PUSH2 0x2A5 DUP2 PUSH2 0x268 JUMP JUMPDEST DUP5 ADD SWAP2 POP POP SWAP3 SWAP2 POP POP JUMP JUMPDEST PUSH0 PUSH1 0x20 DUP3 ADD SWAP1 POP DUP2 DUP2 SUB PUSH0 DUP4 ADD MSTORE PUSH2 0x2C8 DUP2 DUP5 PUSH2 0x278 JUMP JUMPDEST SWAP1 POP SWAP3 SWAP2 POP POP JUMP JUMPDEST PUSH32 0x4E487B7100000000000000000000000000000000000000000000000000000000 PUSH0 MSTORE PUSH1 0x11 PUSH1 0x4 MSTORE PUSH1 0x24 PUSH0 REVERT JUMPDEST PUSH0 PUSH2 0x307 DUP3 PUSH2 0x1C8 JUMP JUMPDEST SWAP2 POP PUSH32 0xFFFFFFFFFFFFFFFFFFFFFFFFFFFFFFFFFFFFFFFFFFFFFFFFFFFFFFFFFFFFFFFF DUP3 SUB PUSH2 0x339 JUMPI PUSH2 0x338 PUSH2 0x2D0 JUMP JUMPDEST JUMPDEST PUSH1 0x1 DUP3 ADD SWAP1 POP SWAP2 SWAP1 POP JUMP JUMPDEST PUSH32 0x4E487B7100000000000000000000000000000000000000000000000000000000 PUSH0 MSTORE PUSH1 0x12 PUSH1 0x4 MSTORE PUSH1 0x24 PUSH0 REVERT JUMPDEST PUSH0 PUSH2 0x37B DUP3 PUSH2 0x1C8 JUMP JUMPDEST SWAP2 POP PUSH2 0x386 DUP4 PUSH2 0x1C8 JUMP JUMPDEST SWAP3 POP DUP3 PUSH2 0x396 JUMPI PUSH2 0x395 PUSH2 0x344 JUMP JUMPDEST JUMPDEST DUP3 DUP3 DIV SWAP1 POP SWAP3 SWAP2 POP POP JUMP JUMPDEST PUSH32 0x4E487B7100000000000000000000000000000000000000000000000000000000 PUSH0 MSTORE PUSH1 0x41 PUSH1 0x4 MSTORE PUSH1 0x24 PUSH0 REVERT JUMPDEST PUSH0 PUSH2 0x3D8 DUP3 PUSH2 0x1C8 JUMP JUMPDEST SWAP2 POP PUSH2 0x3E3 DUP4 PUSH2 0x1C8 JUMP JUMPDEST SWAP3 POP DUP3 DUP3 SUB SWAP1 POP DUP2 DUP2 GT ISZERO PUSH2 0x3FB JUMPI PUSH2 0x3FA PUSH2 0x2D0 JUMP JUMPDEST JUMPDEST SWAP3 SWAP2 POP POP JUMP JUMPDEST PUSH0 PUSH2 0x40B DUP3 PUSH2 0x1C8 JUMP JUMPDEST SWAP2 POP PUSH2 0x416 DUP4 PUSH2 0x1C8 JUMP JUMPDEST SWAP3 POP DUP3 PUSH2 0x426 JUMPI PUSH2 0x425 PUSH2 0x344 JUMP JUMPDEST JUMPDEST DUP3 DUP3 MOD SWAP1 POP SWAP3 SWAP2 POP POP JUMP JUMPDEST PUSH0 PUSH2 0x43B DUP3 PUSH2 0x1C8 JUMP JUMPDEST SWAP2 POP PUSH2 0x446 DUP4 PUSH2 0x1C8 JUMP JUMPDEST SWAP3 POP DUP3 DUP3 ADD SWAP1 POP DUP1 DUP3 GT ISZERO PUSH2 0x45E JUMPI PUSH2 0x45D PUSH2 0x2D0 JUMP JUMPDEST JUMPDEST SWAP3 SWAP2 POP POP JUMP JUMPDEST PUSH0 PUSH2 0x46E DUP3 PUSH2 0x1C8 JUMP JUMPDEST SWAP2 POP PUSH0 DUP3 SUB PUSH2 0x480 JUMPI PUSH2 0x47F PUSH2 0x2D0 JUMP JUMPDEST JUMPDEST PUSH1 0x1 DUP3 SUB SWAP1 POP SWAP2 SWAP1 POP JUMP JUMPDEST PUSH32 0x4E487B7100000000000000000000000000000000000000000000000000000000 PUSH0 MSTORE PUSH1 0x32 PUSH1 0x4 MSTORE PUSH1 0x24 PUSH0 REVERT INVALID LOG2 PUSH5 0x6970667358 0x22 SLT KECCAK256 STATICCALL PC SWAP8 DIV PUSH28 0xC4FAA323A098BE9076221C99E8011A911F0C79AC8DE20401388BD164 PUSH20 0x6F6C634300081600330000000000000000000000 "
		},
		"gasEstimates": {
			"creation": {
				"codeDepositCost": "252400",
				"executionCost": "infinite",
				"totalCost": "infinite"
			},
			"external": {
				"c(uint256)": "infinite"
			}
		},
		"methodIdentifiers": {
			"c(uint256)": "4f8dd50d"
		}
	},
	"abi": [
		{
			"inputs": [
				{
					"internalType": "uint256",
					"name": "_i",
					"type": "uint256"
				}
			],
			"name": "c",
			"outputs": [
				{
					"internalType": "string",
					"name": "",
					"type": "string"
				}
			],
			"stateMutability": "pure",
			"type": "function"
		}
	]
}