{
	"chapter-1/SolidityTest.sol": {
		"SolidityTest": {
			"abi": [
				{
					"inputs": [],
					"stateMutability": "nonpayable",
					"type": "constructor"
				},
				{
					"inputs": [],
					"name": "data",
					"outputs": [
						{
							"internalType": "uint256",
							"name": "",
							"type": "uint256"
						}
					],
					"stateMutability": "view",
					"type": "function"
				},
				{
					"inputs": [],
					"name": "getResult",
					"outputs": [
						{
							"internalType": "string",
							"name": "",
							"type": "string"
						}
					],
					"stateMutability": "view",
					"type": "function"
				},
				{
					"inputs": [],
					"name": "getResult2",
					"outputs": [
						{
							"internalType": "string",
							"name": "",
							"type": "string"
						}
					],
					"stateMutability": "view",
					"type": "function"
				},
				{
					"inputs": [],
					"name": "storedData",
					"outputs": [
						{
							"internalType": "uint256",
							"name": "",
							"type": "uint256"
						}
					],
					"stateMutability": "view",
					"type": "function"
				}
			],
			"devdoc": {
				"kind": "dev",
				"methods": {},
				"version": 1
			},
			"evm": {
				"assembly": "    /* \"chapter-1/SolidityTest.sol\":402:2342  contract SolidityTest {... */\n  mstore(0x40, 0x80)\n    /* \"chapter-1/SolidityTest.sol\":482:484  30 */\n  0x1e\n    /* \"chapter-1/SolidityTest.sol\":457:484  uint public storedData = 30 */\n  0x00\n  sstore\n    /* \"chapter-1/SolidityTest.sol\":510:512  30 */\n  0x1e\n    /* \"chapter-1/SolidityTest.sol\":491:512  uint public data = 30 */\n  0x01\n  sstore\n    /* \"chapter-1/SolidityTest.sol\":585:609  constructor() {... */\n  callvalue\n  dup1\n  iszero\n  tag_1\n  jumpi\n  0x00\n  dup1\n  revert\ntag_1:\n  pop\n    /* \"chapter-1/SolidityTest.sol\":402:2342  contract SolidityTest {... */\n  dataSize(sub_0)\n  dup1\n  dataOffset(sub_0)\n  0x00\n  codecopy\n  0x00\n  return\nstop\n\nsub_0: assembly {\n        /* \"chapter-1/SolidityTest.sol\":402:2342  contract SolidityTest {... */\n      mstore(0x40, 0x80)\n      callvalue\n      dup1\n      iszero\n      tag_1\n      jumpi\n      0x00\n      dup1\n      revert\n    tag_1:\n      pop\n      jumpi(tag_2, lt(calldatasize, 0x04))\n      shr(0xe0, calldataload(0x00))\n      dup1\n      0x2a1afcd9\n      eq\n      tag_3\n      jumpi\n      dup1\n      0x73d4a13a\n      eq\n      tag_4\n      jumpi\n      dup1\n      0xde292789\n      eq\n      tag_5\n      jumpi\n      dup1\n      0xe8da0424\n      eq\n      tag_6\n      jumpi\n    tag_2:\n      0x00\n      dup1\n      revert\n        /* \"chapter-1/SolidityTest.sol\":457:484  uint public storedData = 30 */\n    tag_3:\n      tag_7\n      tag_8\n      jump\t// in\n    tag_7:\n      mload(0x40)\n      tag_9\n      swap2\n      swap1\n      tag_10\n      jump\t// in\n    tag_9:\n      mload(0x40)\n      dup1\n      swap2\n      sub\n      swap1\n      return\n        /* \"chapter-1/SolidityTest.sol\":491:512  uint public data = 30 */\n    tag_4:\n      tag_11\n      tag_12\n      jump\t// in\n    tag_11:\n      mload(0x40)\n      tag_13\n      swap2\n      swap1\n      tag_10\n      jump\t// in\n    tag_13:\n      mload(0x40)\n      dup1\n      swap2\n      sub\n      swap1\n      return\n        /* \"chapter-1/SolidityTest.sol\":615:836  function getResult() public view returns (string memory){... */\n    tag_5:\n      tag_14\n      tag_15\n      jump\t// in\n    tag_14:\n      mload(0x40)\n      tag_16\n      swap2\n      swap1\n      tag_17\n      jump\t// in\n    tag_16:\n      mload(0x40)\n      dup1\n      swap2\n      sub\n      swap1\n      return\n        /* \"chapter-1/SolidityTest.sol\":1600:1823  function getResult2() public view  returns (string memory){... */\n    tag_6:\n      tag_18\n      tag_19\n      jump\t// in\n    tag_18:\n      mload(0x40)\n      tag_20\n      swap2\n      swap1\n      tag_17\n      jump\t// in\n    tag_20:\n      mload(0x40)\n      dup1\n      swap2\n      sub\n      swap1\n      return\n        /* \"chapter-1/SolidityTest.sol\":457:484  uint public storedData = 30 */\n    tag_8:\n      sload(0x00)\n      dup2\n      jump\t// out\n        /* \"chapter-1/SolidityTest.sol\":491:512  uint public data = 30 */\n    tag_12:\n      sload(0x01)\n      dup2\n      jump\t// out\n        /* \"chapter-1/SolidityTest.sol\":615:836  function getResult() public view returns (string memory){... */\n    tag_15:\n        /* \"chapter-1/SolidityTest.sol\":657:670  string memory */\n      0x60\n        /* \"chapter-1/SolidityTest.sol\":684:690  uint a */\n      0x00\n        /* \"chapter-1/SolidityTest.sol\":693:694  1 */\n      0x01\n        /* \"chapter-1/SolidityTest.sol\":684:694  uint a = 1 */\n      swap1\n      pop\n        /* \"chapter-1/SolidityTest.sol\":723:729  uint b */\n      0x00\n        /* \"chapter-1/SolidityTest.sol\":732:733  2 */\n      0x02\n        /* \"chapter-1/SolidityTest.sol\":723:733  uint b = 2 */\n      swap1\n      pop\n        /* \"chapter-1/SolidityTest.sol\":744:755  uint result */\n      0x00\n        /* \"chapter-1/SolidityTest.sol\":762:763  b */\n      dup2\n        /* \"chapter-1/SolidityTest.sol\":758:759  a */\n      dup4\n        /* \"chapter-1/SolidityTest.sol\":758:763  a + b */\n      tag_22\n      swap2\n      swap1\n      tag_23\n      jump\t// in\n    tag_22:\n        /* \"chapter-1/SolidityTest.sol\":744:763  uint result = a + b */\n      swap1\n      pop\n        /* \"chapter-1/SolidityTest.sol\":781:800  intToString(result) */\n      tag_24\n        /* \"chapter-1/SolidityTest.sol\":793:799  result */\n      dup2\n        /* \"chapter-1/SolidityTest.sol\":781:792  intToString */\n      tag_25\n        /* \"chapter-1/SolidityTest.sol\":781:800  intToString(result) */\n      jump\t// in\n    tag_24:\n        /* \"chapter-1/SolidityTest.sol\":774:800  return intToString(result) */\n      swap4\n      pop\n      pop\n      pop\n      pop\n        /* \"chapter-1/SolidityTest.sol\":615:836  function getResult() public view returns (string memory){... */\n      swap1\n      jump\t// out\n        /* \"chapter-1/SolidityTest.sol\":1600:1823  function getResult2() public view  returns (string memory){... */\n    tag_19:\n        /* \"chapter-1/SolidityTest.sol\":1644:1657  string memory */\n      0x60\n        /* \"chapter-1/SolidityTest.sol\":1671:1677  uint a */\n      0x00\n        /* \"chapter-1/SolidityTest.sol\":1680:1681  1 */\n      0x01\n        /* \"chapter-1/SolidityTest.sol\":1671:1681  uint a = 1 */\n      swap1\n      pop\n        /* \"chapter-1/SolidityTest.sol\":1710:1716  uint b */\n      0x00\n        /* \"chapter-1/SolidityTest.sol\":1719:1720  2 */\n      0x02\n        /* \"chapter-1/SolidityTest.sol\":1710:1720  uint b = 2 */\n      swap1\n      pop\n        /* \"chapter-1/SolidityTest.sol\":1731:1742  uint result */\n      0x00\n        /* \"chapter-1/SolidityTest.sol\":1749:1750  b */\n      dup2\n        /* \"chapter-1/SolidityTest.sol\":1745:1746  a */\n      dup4\n        /* \"chapter-1/SolidityTest.sol\":1745:1750  a + b */\n      tag_27\n      swap2\n      swap1\n      tag_23\n      jump\t// in\n    tag_27:\n        /* \"chapter-1/SolidityTest.sol\":1731:1750  uint result = a + b */\n      swap1\n      pop\n        /* \"chapter-1/SolidityTest.sol\":1768:1787  intToString(result) */\n      tag_28\n        /* \"chapter-1/SolidityTest.sol\":1780:1786  result */\n      dup2\n        /* \"chapter-1/SolidityTest.sol\":1768:1779  intToString */\n      tag_25\n        /* \"chapter-1/SolidityTest.sol\":1768:1787  intToString(result) */\n      jump\t// in\n    tag_28:\n        /* \"chapter-1/SolidityTest.sol\":1761:1787  return intToString(result) */\n      swap4\n      pop\n      pop\n      pop\n      pop\n        /* \"chapter-1/SolidityTest.sol\":1600:1823  function getResult2() public view  returns (string memory){... */\n      swap1\n      jump\t// out\n        /* \"chapter-1/SolidityTest.sol\":844:1338  function intToString(uint _i) internal pure returns (string memory){... */\n    tag_25:\n        /* \"chapter-1/SolidityTest.sol\":897:910  string memory */\n      0x60\n        /* \"chapter-1/SolidityTest.sol\":932:933  0 */\n      0x00\n        /* \"chapter-1/SolidityTest.sol\":926:928  _i */\n      dup3\n        /* \"chapter-1/SolidityTest.sol\":926:933  _i == 0 */\n      sub\n        /* \"chapter-1/SolidityTest.sol\":922:972  if (_i == 0) {... */\n      tag_30\n      jumpi\n        /* \"chapter-1/SolidityTest.sol\":950:960  return \"0\" */\n      mload(0x40)\n      dup1\n      0x40\n      add\n      0x40\n      mstore\n      dup1\n      0x01\n      dup2\n      mstore\n      0x20\n      add\n      0x3000000000000000000000000000000000000000000000000000000000000000\n      dup2\n      mstore\n      pop\n      swap1\n      pop\n      jump(tag_29)\n        /* \"chapter-1/SolidityTest.sol\":922:972  if (_i == 0) {... */\n    tag_30:\n        /* \"chapter-1/SolidityTest.sol\":982:988  uint j */\n      0x00\n        /* \"chapter-1/SolidityTest.sol\":991:993  _i */\n      dup3\n        /* \"chapter-1/SolidityTest.sol\":982:993  uint j = _i */\n      swap1\n      pop\n        /* \"chapter-1/SolidityTest.sol\":1004:1012  uint len */\n      0x00\n        /* \"chapter-1/SolidityTest.sol\":1023:1092  while (j != 0) {... */\n    tag_31:\n        /* \"chapter-1/SolidityTest.sol\":1035:1036  0 */\n      0x00\n        /* \"chapter-1/SolidityTest.sol\":1030:1031  j */\n      dup3\n        /* \"chapter-1/SolidityTest.sol\":1030:1036  j != 0 */\n      eq\n        /* \"chapter-1/SolidityTest.sol\":1023:1092  while (j != 0) {... */\n      tag_32\n      jumpi\n        /* \"chapter-1/SolidityTest.sol\":1053:1058  len++ */\n      dup1\n      dup1\n      tag_33\n      swap1\n      tag_34\n      jump\t// in\n    tag_33:\n      swap2\n      pop\n      pop\n        /* \"chapter-1/SolidityTest.sol\":1078:1080  10 */\n      0x0a\n        /* \"chapter-1/SolidityTest.sol\":1073:1080  j /= 10 */\n      dup3\n      tag_35\n      swap2\n      swap1\n      tag_36\n      jump\t// in\n    tag_35:\n      swap2\n      pop\n        /* \"chapter-1/SolidityTest.sol\":1023:1092  while (j != 0) {... */\n      jump(tag_31)\n    tag_32:\n        /* \"chapter-1/SolidityTest.sol\":1102:1119  bytes memory bstr */\n      0x00\n        /* \"chapter-1/SolidityTest.sol\":1132:1135  len */\n      dup2\n        /* \"chapter-1/SolidityTest.sol\":1122:1136  new bytes(len) */\n      0xffffffffffffffff\n      dup2\n      gt\n      iszero\n      tag_37\n      jumpi\n      tag_38\n      tag_39\n      jump\t// in\n    tag_38:\n    tag_37:\n      mload(0x40)\n      swap1\n      dup1\n      dup3\n      mstore\n      dup1\n      0x1f\n      add\n      not(0x1f)\n      and\n      0x20\n      add\n      dup3\n      add\n      0x40\n      mstore\n      dup1\n      iszero\n      tag_40\n      jumpi\n      dup2\n      0x20\n      add\n      0x01\n      dup3\n      mul\n      dup1\n      calldatasize\n      dup4\n      calldatacopy\n      dup1\n      dup3\n      add\n      swap2\n      pop\n      pop\n      swap1\n      pop\n    tag_40:\n      pop\n        /* \"chapter-1/SolidityTest.sol\":1102:1136  bytes memory bstr = new bytes(len) */\n      swap1\n      pop\n        /* \"chapter-1/SolidityTest.sol\":1147:1153  uint k */\n      0x00\n        /* \"chapter-1/SolidityTest.sol\":1162:1163  1 */\n      0x01\n        /* \"chapter-1/SolidityTest.sol\":1156:1159  len */\n      dup4\n        /* \"chapter-1/SolidityTest.sol\":1156:1163  len - 1 */\n      tag_41\n      swap2\n      swap1\n      tag_42\n      jump\t// in\n    tag_41:\n        /* \"chapter-1/SolidityTest.sol\":1147:1163  uint k = len - 1 */\n      swap1\n      pop\n        /* \"chapter-1/SolidityTest.sol\":1176:1295  while (_i != 0) { // while loop... */\n    tag_43:\n        /* \"chapter-1/SolidityTest.sol\":1189:1190  0 */\n      0x00\n        /* \"chapter-1/SolidityTest.sol\":1183:1185  _i */\n      dup7\n        /* \"chapter-1/SolidityTest.sol\":1183:1190  _i != 0 */\n      eq\n        /* \"chapter-1/SolidityTest.sol\":1176:1295  while (_i != 0) { // while loop... */\n      tag_44\n      jumpi\n        /* \"chapter-1/SolidityTest.sol\":1256:1258  10 */\n      0x0a\n        /* \"chapter-1/SolidityTest.sol\":1251:1253  _i */\n      dup7\n        /* \"chapter-1/SolidityTest.sol\":1251:1258  _i % 10 */\n      tag_45\n      swap2\n      swap1\n      tag_46\n      jump\t// in\n    tag_45:\n        /* \"chapter-1/SolidityTest.sol\":1246:1248  48 */\n      0x30\n        /* \"chapter-1/SolidityTest.sol\":1246:1258  48 + _i % 10 */\n      tag_47\n      swap2\n      swap1\n      tag_23\n      jump\t// in\n    tag_47:\n        /* \"chapter-1/SolidityTest.sol\":1233:1260  bytes1(uint8(48 + _i % 10)) */\n      0xf8\n      shl\n        /* \"chapter-1/SolidityTest.sol\":1221:1225  bstr */\n      dup3\n        /* \"chapter-1/SolidityTest.sol\":1226:1229  k-- */\n      dup3\n      dup1\n      tag_48\n      swap1\n      tag_49\n      jump\t// in\n    tag_48:\n      swap4\n      pop\n        /* \"chapter-1/SolidityTest.sol\":1221:1230  bstr[k--] */\n      dup2\n      mload\n      dup2\n      lt\n      tag_50\n      jumpi\n      tag_51\n      tag_52\n      jump\t// in\n    tag_51:\n    tag_50:\n      0x20\n      add\n      add\n        /* \"chapter-1/SolidityTest.sol\":1221:1260  bstr[k--] = bytes1(uint8(48 + _i % 10)) */\n      swap1\n      not(0xffffffffffffffffffffffffffffffffffffffffffffffffffffffffffffff)\n      and\n      swap1\n      dup2\n      0x00\n      byte\n      swap1\n      mstore8\n      pop\n        /* \"chapter-1/SolidityTest.sol\":1281:1283  10 */\n      0x0a\n        /* \"chapter-1/SolidityTest.sol\":1275:1283  _i /= 10 */\n      dup7\n      tag_53\n      swap2\n      swap1\n      tag_36\n      jump\t// in\n    tag_53:\n      swap6\n      pop\n        /* \"chapter-1/SolidityTest.sol\":1176:1295  while (_i != 0) { // while loop... */\n      jump(tag_43)\n    tag_44:\n        /* \"chapter-1/SolidityTest.sol\":1323:1327  bstr */\n      dup2\n        /* \"chapter-1/SolidityTest.sol\":1309:1328  return string(bstr) */\n      swap5\n      pop\n      pop\n      pop\n      pop\n      pop\n        /* \"chapter-1/SolidityTest.sol\":844:1338  function intToString(uint _i) internal pure returns (string memory){... */\n    tag_29:\n      swap2\n      swap1\n      pop\n      jump\t// out\n        /* \"#utility.yul\":7:84   */\n    tag_54:\n        /* \"#utility.yul\":44:51   */\n      0x00\n        /* \"#utility.yul\":73:78   */\n      dup2\n        /* \"#utility.yul\":62:78   */\n      swap1\n      pop\n        /* \"#utility.yul\":7:84   */\n      swap2\n      swap1\n      pop\n      jump\t// out\n        /* \"#utility.yul\":90:208   */\n    tag_55:\n        /* \"#utility.yul\":177:201   */\n      tag_66\n        /* \"#utility.yul\":195:200   */\n      dup2\n        /* \"#utility.yul\":177:201   */\n      tag_54\n      jump\t// in\n    tag_66:\n        /* \"#utility.yul\":172:175   */\n      dup3\n        /* \"#utility.yul\":165:202   */\n      mstore\n        /* \"#utility.yul\":90:208   */\n      pop\n      pop\n      jump\t// out\n        /* \"#utility.yul\":214:436   */\n    tag_10:\n        /* \"#utility.yul\":307:311   */\n      0x00\n        /* \"#utility.yul\":345:347   */\n      0x20\n        /* \"#utility.yul\":334:343   */\n      dup3\n        /* \"#utility.yul\":330:348   */\n      add\n        /* \"#utility.yul\":322:348   */\n      swap1\n      pop\n        /* \"#utility.yul\":358:429   */\n      tag_68\n        /* \"#utility.yul\":426:427   */\n      0x00\n        /* \"#utility.yul\":415:424   */\n      dup4\n        /* \"#utility.yul\":411:428   */\n      add\n        /* \"#utility.yul\":402:408   */\n      dup5\n        /* \"#utility.yul\":358:429   */\n      tag_55\n      jump\t// in\n    tag_68:\n        /* \"#utility.yul\":214:436   */\n      swap3\n      swap2\n      pop\n      pop\n      jump\t// out\n        /* \"#utility.yul\":442:541   */\n    tag_56:\n        /* \"#utility.yul\":494:500   */\n      0x00\n        /* \"#utility.yul\":528:533   */\n      dup2\n        /* \"#utility.yul\":522:534   */\n      mload\n        /* \"#utility.yul\":512:534   */\n      swap1\n      pop\n        /* \"#utility.yul\":442:541   */\n      swap2\n      swap1\n      pop\n      jump\t// out\n        /* \"#utility.yul\":547:716   */\n    tag_57:\n        /* \"#utility.yul\":631:642   */\n      0x00\n        /* \"#utility.yul\":665:671   */\n      dup3\n        /* \"#utility.yul\":660:663   */\n      dup3\n        /* \"#utility.yul\":653:672   */\n      mstore\n        /* \"#utility.yul\":705:709   */\n      0x20\n        /* \"#utility.yul\":700:703   */\n      dup3\n        /* \"#utility.yul\":696:710   */\n      add\n        /* \"#utility.yul\":681:710   */\n      swap1\n      pop\n        /* \"#utility.yul\":547:716   */\n      swap3\n      swap2\n      pop\n      pop\n      jump\t// out\n        /* \"#utility.yul\":722:968   */\n    tag_58:\n        /* \"#utility.yul\":803:804   */\n      0x00\n        /* \"#utility.yul\":813:926   */\n    tag_72:\n        /* \"#utility.yul\":827:833   */\n      dup4\n        /* \"#utility.yul\":824:825   */\n      dup2\n        /* \"#utility.yul\":821:834   */\n      lt\n        /* \"#utility.yul\":813:926   */\n      iszero\n      tag_74\n      jumpi\n        /* \"#utility.yul\":912:913   */\n      dup1\n        /* \"#utility.yul\":907:910   */\n      dup3\n        /* \"#utility.yul\":903:914   */\n      add\n        /* \"#utility.yul\":897:915   */\n      mload\n        /* \"#utility.yul\":893:894   */\n      dup2\n        /* \"#utility.yul\":888:891   */\n      dup5\n        /* \"#utility.yul\":884:895   */\n      add\n        /* \"#utility.yul\":877:916   */\n      mstore\n        /* \"#utility.yul\":849:851   */\n      0x20\n        /* \"#utility.yul\":846:847   */\n      dup2\n        /* \"#utility.yul\":842:852   */\n      add\n        /* \"#utility.yul\":837:852   */\n      swap1\n      pop\n        /* \"#utility.yul\":813:926   */\n      jump(tag_72)\n    tag_74:\n        /* \"#utility.yul\":960:961   */\n      0x00\n        /* \"#utility.yul\":951:957   */\n      dup5\n        /* \"#utility.yul\":946:949   */\n      dup5\n        /* \"#utility.yul\":942:958   */\n      add\n        /* \"#utility.yul\":935:962   */\n      mstore\n        /* \"#utility.yul\":784:968   */\n      pop\n        /* \"#utility.yul\":722:968   */\n      pop\n      pop\n      pop\n      jump\t// out\n        /* \"#utility.yul\":974:1076   */\n    tag_59:\n        /* \"#utility.yul\":1015:1021   */\n      0x00\n        /* \"#utility.yul\":1066:1068   */\n      0x1f\n        /* \"#utility.yul\":1062:1069   */\n      not\n        /* \"#utility.yul\":1057:1059   */\n      0x1f\n        /* \"#utility.yul\":1050:1055   */\n      dup4\n        /* \"#utility.yul\":1046:1060   */\n      add\n        /* \"#utility.yul\":1042:1070   */\n      and\n        /* \"#utility.yul\":1032:1070   */\n      swap1\n      pop\n        /* \"#utility.yul\":974:1076   */\n      swap2\n      swap1\n      pop\n      jump\t// out\n        /* \"#utility.yul\":1082:1459   */\n    tag_60:\n        /* \"#utility.yul\":1170:1173   */\n      0x00\n        /* \"#utility.yul\":1198:1237   */\n      tag_77\n        /* \"#utility.yul\":1231:1236   */\n      dup3\n        /* \"#utility.yul\":1198:1237   */\n      tag_56\n      jump\t// in\n    tag_77:\n        /* \"#utility.yul\":1253:1324   */\n      tag_78\n        /* \"#utility.yul\":1317:1323   */\n      dup2\n        /* \"#utility.yul\":1312:1315   */\n      dup6\n        /* \"#utility.yul\":1253:1324   */\n      tag_57\n      jump\t// in\n    tag_78:\n        /* \"#utility.yul\":1246:1324   */\n      swap4\n      pop\n        /* \"#utility.yul\":1333:1398   */\n      tag_79\n        /* \"#utility.yul\":1391:1397   */\n      dup2\n        /* \"#utility.yul\":1386:1389   */\n      dup6\n        /* \"#utility.yul\":1379:1383   */\n      0x20\n        /* \"#utility.yul\":1372:1377   */\n      dup7\n        /* \"#utility.yul\":1368:1384   */\n      add\n        /* \"#utility.yul\":1333:1398   */\n      tag_58\n      jump\t// in\n    tag_79:\n        /* \"#utility.yul\":1423:1452   */\n      tag_80\n        /* \"#utility.yul\":1445:1451   */\n      dup2\n        /* \"#utility.yul\":1423:1452   */\n      tag_59\n      jump\t// in\n    tag_80:\n        /* \"#utility.yul\":1418:1421   */\n      dup5\n        /* \"#utility.yul\":1414:1453   */\n      add\n        /* \"#utility.yul\":1407:1453   */\n      swap2\n      pop\n        /* \"#utility.yul\":1174:1459   */\n      pop\n        /* \"#utility.yul\":1082:1459   */\n      swap3\n      swap2\n      pop\n      pop\n      jump\t// out\n        /* \"#utility.yul\":1465:1778   */\n    tag_17:\n        /* \"#utility.yul\":1578:1582   */\n      0x00\n        /* \"#utility.yul\":1616:1618   */\n      0x20\n        /* \"#utility.yul\":1605:1614   */\n      dup3\n        /* \"#utility.yul\":1601:1619   */\n      add\n        /* \"#utility.yul\":1593:1619   */\n      swap1\n      pop\n        /* \"#utility.yul\":1665:1674   */\n      dup2\n        /* \"#utility.yul\":1659:1663   */\n      dup2\n        /* \"#utility.yul\":1655:1675   */\n      sub\n        /* \"#utility.yul\":1651:1652   */\n      0x00\n        /* \"#utility.yul\":1640:1649   */\n      dup4\n        /* \"#utility.yul\":1636:1653   */\n      add\n        /* \"#utility.yul\":1629:1676   */\n      mstore\n        /* \"#utility.yul\":1693:1771   */\n      tag_82\n        /* \"#utility.yul\":1766:1770   */\n      dup2\n        /* \"#utility.yul\":1757:1763   */\n      dup5\n        /* \"#utility.yul\":1693:1771   */\n      tag_60\n      jump\t// in\n    tag_82:\n        /* \"#utility.yul\":1685:1771   */\n      swap1\n      pop\n        /* \"#utility.yul\":1465:1778   */\n      swap3\n      swap2\n      pop\n      pop\n      jump\t// out\n        /* \"#utility.yul\":1784:1964   */\n    tag_61:\n        /* \"#utility.yul\":1832:1909   */\n      0x4e487b7100000000000000000000000000000000000000000000000000000000\n        /* \"#utility.yul\":1829:1830   */\n      0x00\n        /* \"#utility.yul\":1822:1910   */\n      mstore\n        /* \"#utility.yul\":1929:1933   */\n      0x11\n        /* \"#utility.yul\":1926:1927   */\n      0x04\n        /* \"#utility.yul\":1919:1934   */\n      mstore\n        /* \"#utility.yul\":1953:1957   */\n      0x24\n        /* \"#utility.yul\":1950:1951   */\n      0x00\n        /* \"#utility.yul\":1943:1958   */\n      revert\n        /* \"#utility.yul\":1970:2161   */\n    tag_23:\n        /* \"#utility.yul\":2010:2013   */\n      0x00\n        /* \"#utility.yul\":2029:2049   */\n      tag_85\n        /* \"#utility.yul\":2047:2048   */\n      dup3\n        /* \"#utility.yul\":2029:2049   */\n      tag_54\n      jump\t// in\n    tag_85:\n        /* \"#utility.yul\":2024:2049   */\n      swap2\n      pop\n        /* \"#utility.yul\":2063:2083   */\n      tag_86\n        /* \"#utility.yul\":2081:2082   */\n      dup4\n        /* \"#utility.yul\":2063:2083   */\n      tag_54\n      jump\t// in\n    tag_86:\n        /* \"#utility.yul\":2058:2083   */\n      swap3\n      pop\n        /* \"#utility.yul\":2106:2107   */\n      dup3\n        /* \"#utility.yul\":2103:2104   */\n      dup3\n        /* \"#utility.yul\":2099:2108   */\n      add\n        /* \"#utility.yul\":2092:2108   */\n      swap1\n      pop\n        /* \"#utility.yul\":2127:2130   */\n      dup1\n        /* \"#utility.yul\":2124:2125   */\n      dup3\n        /* \"#utility.yul\":2121:2131   */\n      gt\n        /* \"#utility.yul\":2118:2154   */\n      iszero\n      tag_87\n      jumpi\n        /* \"#utility.yul\":2134:2152   */\n      tag_88\n      tag_61\n      jump\t// in\n    tag_88:\n        /* \"#utility.yul\":2118:2154   */\n    tag_87:\n        /* \"#utility.yul\":1970:2161   */\n      swap3\n      swap2\n      pop\n      pop\n      jump\t// out\n        /* \"#utility.yul\":2167:2400   */\n    tag_34:\n        /* \"#utility.yul\":2206:2209   */\n      0x00\n        /* \"#utility.yul\":2229:2253   */\n      tag_90\n        /* \"#utility.yul\":2247:2252   */\n      dup3\n        /* \"#utility.yul\":2229:2253   */\n      tag_54\n      jump\t// in\n    tag_90:\n        /* \"#utility.yul\":2220:2253   */\n      swap2\n      pop\n        /* \"#utility.yul\":2275:2341   */\n      0xffffffffffffffffffffffffffffffffffffffffffffffffffffffffffffffff\n        /* \"#utility.yul\":2268:2273   */\n      dup3\n        /* \"#utility.yul\":2265:2342   */\n      sub\n        /* \"#utility.yul\":2262:2365   */\n      tag_91\n      jumpi\n        /* \"#utility.yul\":2345:2363   */\n      tag_92\n      tag_61\n      jump\t// in\n    tag_92:\n        /* \"#utility.yul\":2262:2365   */\n    tag_91:\n        /* \"#utility.yul\":2392:2393   */\n      0x01\n        /* \"#utility.yul\":2385:2390   */\n      dup3\n        /* \"#utility.yul\":2381:2394   */\n      add\n        /* \"#utility.yul\":2374:2394   */\n      swap1\n      pop\n        /* \"#utility.yul\":2167:2400   */\n      swap2\n      swap1\n      pop\n      jump\t// out\n        /* \"#utility.yul\":2406:2586   */\n    tag_62:\n        /* \"#utility.yul\":2454:2531   */\n      0x4e487b7100000000000000000000000000000000000000000000000000000000\n        /* \"#utility.yul\":2451:2452   */\n      0x00\n        /* \"#utility.yul\":2444:2532   */\n      mstore\n        /* \"#utility.yul\":2551:2555   */\n      0x12\n        /* \"#utility.yul\":2548:2549   */\n      0x04\n        /* \"#utility.yul\":2541:2556   */\n      mstore\n        /* \"#utility.yul\":2575:2579   */\n      0x24\n        /* \"#utility.yul\":2572:2573   */\n      0x00\n        /* \"#utility.yul\":2565:2580   */\n      revert\n        /* \"#utility.yul\":2592:2777   */\n    tag_36:\n        /* \"#utility.yul\":2632:2633   */\n      0x00\n        /* \"#utility.yul\":2649:2669   */\n      tag_95\n        /* \"#utility.yul\":2667:2668   */\n      dup3\n        /* \"#utility.yul\":2649:2669   */\n      tag_54\n      jump\t// in\n    tag_95:\n        /* \"#utility.yul\":2644:2669   */\n      swap2\n      pop\n        /* \"#utility.yul\":2683:2703   */\n      tag_96\n        /* \"#utility.yul\":2701:2702   */\n      dup4\n        /* \"#utility.yul\":2683:2703   */\n      tag_54\n      jump\t// in\n    tag_96:\n        /* \"#utility.yul\":2678:2703   */\n      swap3\n      pop\n        /* \"#utility.yul\":2722:2723   */\n      dup3\n        /* \"#utility.yul\":2712:2747   */\n      tag_97\n      jumpi\n        /* \"#utility.yul\":2727:2745   */\n      tag_98\n      tag_62\n      jump\t// in\n    tag_98:\n        /* \"#utility.yul\":2712:2747   */\n    tag_97:\n        /* \"#utility.yul\":2769:2770   */\n      dup3\n        /* \"#utility.yul\":2766:2767   */\n      dup3\n        /* \"#utility.yul\":2762:2771   */\n      div\n        /* \"#utility.yul\":2757:2771   */\n      swap1\n      pop\n        /* \"#utility.yul\":2592:2777   */\n      swap3\n      swap2\n      pop\n      pop\n      jump\t// out\n        /* \"#utility.yul\":2783:2963   */\n    tag_39:\n        /* \"#utility.yul\":2831:2908   */\n      0x4e487b7100000000000000000000000000000000000000000000000000000000\n        /* \"#utility.yul\":2828:2829   */\n      0x00\n        /* \"#utility.yul\":2821:2909   */\n      mstore\n        /* \"#utility.yul\":2928:2932   */\n      0x41\n        /* \"#utility.yul\":2925:2926   */\n      0x04\n        /* \"#utility.yul\":2918:2933   */\n      mstore\n        /* \"#utility.yul\":2952:2956   */\n      0x24\n        /* \"#utility.yul\":2949:2950   */\n      0x00\n        /* \"#utility.yul\":2942:2957   */\n      revert\n        /* \"#utility.yul\":2969:3163   */\n    tag_42:\n        /* \"#utility.yul\":3009:3013   */\n      0x00\n        /* \"#utility.yul\":3029:3049   */\n      tag_101\n        /* \"#utility.yul\":3047:3048   */\n      dup3\n        /* \"#utility.yul\":3029:3049   */\n      tag_54\n      jump\t// in\n    tag_101:\n        /* \"#utility.yul\":3024:3049   */\n      swap2\n      pop\n        /* \"#utility.yul\":3063:3083   */\n      tag_102\n        /* \"#utility.yul\":3081:3082   */\n      dup4\n        /* \"#utility.yul\":3063:3083   */\n      tag_54\n      jump\t// in\n    tag_102:\n        /* \"#utility.yul\":3058:3083   */\n      swap3\n      pop\n        /* \"#utility.yul\":3107:3108   */\n      dup3\n        /* \"#utility.yul\":3104:3105   */\n      dup3\n        /* \"#utility.yul\":3100:3109   */\n      sub\n        /* \"#utility.yul\":3092:3109   */\n      swap1\n      pop\n        /* \"#utility.yul\":3131:3132   */\n      dup2\n        /* \"#utility.yul\":3125:3129   */\n      dup2\n        /* \"#utility.yul\":3122:3133   */\n      gt\n        /* \"#utility.yul\":3119:3156   */\n      iszero\n      tag_103\n      jumpi\n        /* \"#utility.yul\":3136:3154   */\n      tag_104\n      tag_61\n      jump\t// in\n    tag_104:\n        /* \"#utility.yul\":3119:3156   */\n    tag_103:\n        /* \"#utility.yul\":2969:3163   */\n      swap3\n      swap2\n      pop\n      pop\n      jump\t// out\n        /* \"#utility.yul\":3169:3345   */\n    tag_46:\n        /* \"#utility.yul\":3201:3202   */\n      0x00\n        /* \"#utility.yul\":3218:3238   */\n      tag_106\n        /* \"#utility.yul\":3236:3237   */\n      dup3\n        /* \"#utility.yul\":3218:3238   */\n      tag_54\n      jump\t// in\n    tag_106:\n        /* \"#utility.yul\":3213:3238   */\n      swap2\n      pop\n        /* \"#utility.yul\":3252:3272   */\n      tag_107\n        /* \"#utility.yul\":3270:3271   */\n      dup4\n        /* \"#utility.yul\":3252:3272   */\n      tag_54\n      jump\t// in\n    tag_107:\n        /* \"#utility.yul\":3247:3272   */\n      swap3\n      pop\n        /* \"#utility.yul\":3291:3292   */\n      dup3\n        /* \"#utility.yul\":3281:3316   */\n      tag_108\n      jumpi\n        /* \"#utility.yul\":3296:3314   */\n      tag_109\n      tag_62\n      jump\t// in\n    tag_109:\n        /* \"#utility.yul\":3281:3316   */\n    tag_108:\n        /* \"#utility.yul\":3337:3338   */\n      dup3\n        /* \"#utility.yul\":3334:3335   */\n      dup3\n        /* \"#utility.yul\":3330:3339   */\n      mod\n        /* \"#utility.yul\":3325:3339   */\n      swap1\n      pop\n        /* \"#utility.yul\":3169:3345   */\n      swap3\n      swap2\n      pop\n      pop\n      jump\t// out\n        /* \"#utility.yul\":3351:3522   */\n    tag_49:\n        /* \"#utility.yul\":3390:3393   */\n      0x00\n        /* \"#utility.yul\":3413:3437   */\n      tag_111\n        /* \"#utility.yul\":3431:3436   */\n      dup3\n        /* \"#utility.yul\":3413:3437   */\n      tag_54\n      jump\t// in\n    tag_111:\n        /* \"#utility.yul\":3404:3437   */\n      swap2\n      pop\n        /* \"#utility.yul\":3459:3463   */\n      0x00\n        /* \"#utility.yul\":3452:3457   */\n      dup3\n        /* \"#utility.yul\":3449:3464   */\n      sub\n        /* \"#utility.yul\":3446:3487   */\n      tag_112\n      jumpi\n        /* \"#utility.yul\":3467:3485   */\n      tag_113\n      tag_61\n      jump\t// in\n    tag_113:\n        /* \"#utility.yul\":3446:3487   */\n    tag_112:\n        /* \"#utility.yul\":3514:3515   */\n      0x01\n        /* \"#utility.yul\":3507:3512   */\n      dup3\n        /* \"#utility.yul\":3503:3516   */\n      sub\n        /* \"#utility.yul\":3496:3516   */\n      swap1\n      pop\n        /* \"#utility.yul\":3351:3522   */\n      swap2\n      swap1\n      pop\n      jump\t// out\n        /* \"#utility.yul\":3528:3708   */\n    tag_52:\n        /* \"#utility.yul\":3576:3653   */\n      0x4e487b7100000000000000000000000000000000000000000000000000000000\n        /* \"#utility.yul\":3573:3574   */\n      0x00\n        /* \"#utility.yul\":3566:3654   */\n      mstore\n        /* \"#utility.yul\":3673:3677   */\n      0x32\n        /* \"#utility.yul\":3670:3671   */\n      0x04\n        /* \"#utility.yul\":3663:3678   */\n      mstore\n        /* \"#utility.yul\":3697:3701   */\n      0x24\n        /* \"#utility.yul\":3694:3695   */\n      0x00\n        /* \"#utility.yul\":3687:3702   */\n      revert\n\n    auxdata: 0xa2646970667358221220d9c8f30cd889e7f79fea56e1d918ca9582266748b4f9d9a34c6744b24ed9ae0564736f6c63430008160033\n}\n",
				"bytecode": {
					"linkReferences": {},
					"object": "6080604052601e5f55601e600155348015610018575f80fd5b50610589806100265f395ff3fe608060405234801561000f575f80fd5b506004361061004a575f3560e01c80632a1afcd91461004e57806373d4a13a1461006c578063de2927891461008a578063e8da0424146100a8575b5f80fd5b6100566100c6565b60405161006391906102a8565b60405180910390f35b6100746100cb565b60405161008191906102a8565b60405180910390f35b6100926100d1565b60405161009f919061034b565b60405180910390f35b6100b06100fd565b6040516100bd919061034b565b60405180910390f35b5f5481565b60015481565b60605f600190505f600290505f81836100ea9190610398565b90506100f581610129565b935050505090565b60605f600190505f600290505f81836101169190610398565b905061012181610129565b935050505090565b60605f820361016f576040518060400160405280600181526020017f3000000000000000000000000000000000000000000000000000000000000000815250905061028b565b5f8290505f5b5f821461019e578080610187906103cb565b915050600a82610197919061043f565b9150610175565b5f8167ffffffffffffffff8111156101b9576101b861046f565b5b6040519080825280601f01601f1916602001820160405280156101eb5781602001600182028036833780820191505090505b5090505f6001836101fc919061049c565b90505b5f861461028357600a8661021391906104cf565b603061021f9190610398565b60f81b82828061022e906104ff565b93508151811061024157610240610526565b5b60200101907effffffffffffffffffffffffffffffffffffffffffffffffffffffffffffff191690815f1a905350600a8661027c919061043f565b95506101ff565b819450505050505b919050565b5f819050919050565b6102a281610290565b82525050565b5f6020820190506102bb5f830184610299565b92915050565b5f81519050919050565b5f82825260208201905092915050565b5f5b838110156102f85780820151818401526020810190506102dd565b5f8484015250505050565b5f601f19601f8301169050919050565b5f61031d826102c1565b61032781856102cb565b93506103378185602086016102db565b61034081610303565b840191505092915050565b5f6020820190508181035f8301526103638184610313565b905092915050565b7f4e487b71000000000000000000000000000000000000000000000000000000005f52601160045260245ffd5b5f6103a282610290565b91506103ad83610290565b92508282019050808211156103c5576103c461036b565b5b92915050565b5f6103d582610290565b91507fffffffffffffffffffffffffffffffffffffffffffffffffffffffffffffffff82036104075761040661036b565b5b600182019050919050565b7f4e487b71000000000000000000000000000000000000000000000000000000005f52601260045260245ffd5b5f61044982610290565b915061045483610290565b92508261046457610463610412565b5b828204905092915050565b7f4e487b71000000000000000000000000000000000000000000000000000000005f52604160045260245ffd5b5f6104a682610290565b91506104b183610290565b92508282039050818111156104c9576104c861036b565b5b92915050565b5f6104d982610290565b91506104e483610290565b9250826104f4576104f3610412565b5b828206905092915050565b5f61050982610290565b91505f820361051b5761051a61036b565b5b600182039050919050565b7f4e487b71000000000000000000000000000000000000000000000000000000005f52603260045260245ffdfea2646970667358221220d9c8f30cd889e7f79fea56e1d918ca9582266748b4f9d9a34c6744b24ed9ae0564736f6c63430008160033",
					"opcodes": "PUSH1 0x80 PUSH1 0x40 MSTORE PUSH1 0x1E PUSH0 SSTORE PUSH1 0x1E PUSH1 0x1 SSTORE CALLVALUE DUP1 ISZERO PUSH2 0x18 JUMPI PUSH0 DUP1 REVERT JUMPDEST POP PUSH2 0x589 DUP1 PUSH2 0x26 PUSH0 CODECOPY PUSH0 RETURN INVALID PUSH1 0x80 PUSH1 0x40 MSTORE CALLVALUE DUP1 ISZERO PUSH2 0xF JUMPI PUSH0 DUP1 REVERT JUMPDEST POP PUSH1 0x4 CALLDATASIZE LT PUSH2 0x4A JUMPI PUSH0 CALLDATALOAD PUSH1 0xE0 SHR DUP1 PUSH4 0x2A1AFCD9 EQ PUSH2 0x4E JUMPI DUP1 PUSH4 0x73D4A13A EQ PUSH2 0x6C JUMPI DUP1 PUSH4 0xDE292789 EQ PUSH2 0x8A JUMPI DUP1 PUSH4 0xE8DA0424 EQ PUSH2 0xA8 JUMPI JUMPDEST PUSH0 DUP1 REVERT JUMPDEST PUSH2 0x56 PUSH2 0xC6 JUMP JUMPDEST PUSH1 0x40 MLOAD PUSH2 0x63 SWAP2 SWAP1 PUSH2 0x2A8 JUMP JUMPDEST PUSH1 0x40 MLOAD DUP1 SWAP2 SUB SWAP1 RETURN JUMPDEST PUSH2 0x74 PUSH2 0xCB JUMP JUMPDEST PUSH1 0x40 MLOAD PUSH2 0x81 SWAP2 SWAP1 PUSH2 0x2A8 JUMP JUMPDEST PUSH1 0x40 MLOAD DUP1 SWAP2 SUB SWAP1 RETURN JUMPDEST PUSH2 0x92 PUSH2 0xD1 JUMP JUMPDEST PUSH1 0x40 MLOAD PUSH2 0x9F SWAP2 SWAP1 PUSH2 0x34B JUMP JUMPDEST PUSH1 0x40 MLOAD DUP1 SWAP2 SUB SWAP1 RETURN JUMPDEST PUSH2 0xB0 PUSH2 0xFD JUMP JUMPDEST PUSH1 0x40 MLOAD PUSH2 0xBD SWAP2 SWAP1 PUSH2 0x34B JUMP JUMPDEST PUSH1 0x40 MLOAD DUP1 SWAP2 SUB SWAP1 RETURN JUMPDEST PUSH0 SLOAD DUP2 JUMP JUMPDEST PUSH1 0x1 SLOAD DUP2 JUMP JUMPDEST PUSH1 0x60 PUSH0 PUSH1 0x1 SWAP1 POP PUSH0 PUSH1 0x2 SWAP1 POP PUSH0 DUP2 DUP4 PUSH2 0xEA SWAP2 SWAP1 PUSH2 0x398 JUMP JUMPDEST SWAP1 POP PUSH2 0xF5 DUP2 PUSH2 0x129 JUMP JUMPDEST SWAP4 POP POP POP POP SWAP1 JUMP JUMPDEST PUSH1 0x60 PUSH0 PUSH1 0x1 SWAP1 POP PUSH0 PUSH1 0x2 SWAP1 POP PUSH0 DUP2 DUP4 PUSH2 0x116 SWAP2 SWAP1 PUSH2 0x398 JUMP JUMPDEST SWAP1 POP PUSH2 0x121 DUP2 PUSH2 0x129 JUMP JUMPDEST SWAP4 POP POP POP POP SWAP1 JUMP JUMPDEST PUSH1 0x60 PUSH0 DUP3 SUB PUSH2 0x16F JUMPI PUSH1 0x40 MLOAD DUP1 PUSH1 0x40 ADD PUSH1 0x40 MSTORE DUP1 PUSH1 0x1 DUP2 MSTORE PUSH1 0x20 ADD PUSH32 0x3000000000000000000000000000000000000000000000000000000000000000 DUP2 MSTORE POP SWAP1 POP PUSH2 0x28B JUMP JUMPDEST PUSH0 DUP3 SWAP1 POP PUSH0 JUMPDEST PUSH0 DUP3 EQ PUSH2 0x19E JUMPI DUP1 DUP1 PUSH2 0x187 SWAP1 PUSH2 0x3CB JUMP JUMPDEST SWAP2 POP POP PUSH1 0xA DUP3 PUSH2 0x197 SWAP2 SWAP1 PUSH2 0x43F JUMP JUMPDEST SWAP2 POP PUSH2 0x175 JUMP JUMPDEST PUSH0 DUP2 PUSH8 0xFFFFFFFFFFFFFFFF DUP2 GT ISZERO PUSH2 0x1B9 JUMPI PUSH2 0x1B8 PUSH2 0x46F JUMP JUMPDEST JUMPDEST PUSH1 0x40 MLOAD SWAP1 DUP1 DUP3 MSTORE DUP1 PUSH1 0x1F ADD PUSH1 0x1F NOT AND PUSH1 0x20 ADD DUP3 ADD PUSH1 0x40 MSTORE DUP1 ISZERO PUSH2 0x1EB JUMPI DUP2 PUSH1 0x20 ADD PUSH1 0x1 DUP3 MUL DUP1 CALLDATASIZE DUP4 CALLDATACOPY DUP1 DUP3 ADD SWAP2 POP POP SWAP1 POP JUMPDEST POP SWAP1 POP PUSH0 PUSH1 0x1 DUP4 PUSH2 0x1FC SWAP2 SWAP1 PUSH2 0x49C JUMP JUMPDEST SWAP1 POP JUMPDEST PUSH0 DUP7 EQ PUSH2 0x283 JUMPI PUSH1 0xA DUP7 PUSH2 0x213 SWAP2 SWAP1 PUSH2 0x4CF JUMP JUMPDEST PUSH1 0x30 PUSH2 0x21F SWAP2 SWAP1 PUSH2 0x398 JUMP JUMPDEST PUSH1 0xF8 SHL DUP3 DUP3 DUP1 PUSH2 0x22E SWAP1 PUSH2 0x4FF JUMP JUMPDEST SWAP4 POP DUP2 MLOAD DUP2 LT PUSH2 0x241 JUMPI PUSH2 0x240 PUSH2 0x526 JUMP JUMPDEST JUMPDEST PUSH1 0x20 ADD ADD SWAP1 PUSH31 0xFFFFFFFFFFFFFFFFFFFFFFFFFFFFFFFFFFFFFFFFFFFFFFFFFFFFFFFFFFFFFF NOT AND SWAP1 DUP2 PUSH0 BYTE SWAP1 MSTORE8 POP PUSH1 0xA DUP7 PUSH2 0x27C SWAP2 SWAP1 PUSH2 0x43F JUMP JUMPDEST SWAP6 POP PUSH2 0x1FF JUMP JUMPDEST DUP2 SWAP5 POP POP POP POP POP JUMPDEST SWAP2 SWAP1 POP JUMP JUMPDEST PUSH0 DUP2 SWAP1 POP SWAP2 SWAP1 POP JUMP JUMPDEST PUSH2 0x2A2 DUP2 PUSH2 0x290 JUMP JUMPDEST DUP3 MSTORE POP POP JUMP JUMPDEST PUSH0 PUSH1 0x20 DUP3 ADD SWAP1 POP PUSH2 0x2BB PUSH0 DUP4 ADD DUP5 PUSH2 0x299 JUMP JUMPDEST SWAP3 SWAP2 POP POP JUMP JUMPDEST PUSH0 DUP2 MLOAD SWAP1 POP SWAP2 SWAP1 POP JUMP JUMPDEST PUSH0 DUP3 DUP3 MSTORE PUSH1 0x20 DUP3 ADD SWAP1 POP SWAP3 SWAP2 POP POP JUMP JUMPDEST PUSH0 JUMPDEST DUP4 DUP2 LT ISZERO PUSH2 0x2F8 JUMPI DUP1 DUP3 ADD MLOAD DUP2 DUP5 ADD MSTORE PUSH1 0x20 DUP2 ADD SWAP1 POP PUSH2 0x2DD JUMP JUMPDEST PUSH0 DUP5 DUP5 ADD MSTORE POP POP POP POP JUMP JUMPDEST PUSH0 PUSH1 0x1F NOT PUSH1 0x1F DUP4 ADD AND SWAP1 POP SWAP2 SWAP1 POP JUMP JUMPDEST PUSH0 PUSH2 0x31D DUP3 PUSH2 0x2C1 JUMP JUMPDEST PUSH2 0x327 DUP2 DUP6 PUSH2 0x2CB JUMP JUMPDEST SWAP4 POP PUSH2 0x337 DUP2 DUP6 PUSH1 0x20 DUP7 ADD PUSH2 0x2DB JUMP JUMPDEST PUSH2 0x340 DUP2 PUSH2 0x303 JUMP JUMPDEST DUP5 ADD SWAP2 POP POP SWAP3 SWAP2 POP POP JUMP JUMPDEST PUSH0 PUSH1 0x20 DUP3 ADD SWAP1 POP DUP2 DUP2 SUB PUSH0 DUP4 ADD MSTORE PUSH2 0x363 DUP2 DUP5 PUSH2 0x313 JUMP JUMPDEST SWAP1 POP SWAP3 SWAP2 POP POP JUMP JUMPDEST PUSH32 0x4E487B7100000000000000000000000000000000000000000000000000000000 PUSH0 MSTORE PUSH1 0x11 PUSH1 0x4 MSTORE PUSH1 0x24 PUSH0 REVERT JUMPDEST PUSH0 PUSH2 0x3A2 DUP3 PUSH2 0x290 JUMP JUMPDEST SWAP2 POP PUSH2 0x3AD DUP4 PUSH2 0x290 JUMP JUMPDEST SWAP3 POP DUP3 DUP3 ADD SWAP1 POP DUP1 DUP3 GT ISZERO PUSH2 0x3C5 JUMPI PUSH2 0x3C4 PUSH2 0x36B JUMP JUMPDEST JUMPDEST SWAP3 SWAP2 POP POP JUMP JUMPDEST PUSH0 PUSH2 0x3D5 DUP3 PUSH2 0x290 JUMP JUMPDEST SWAP2 POP PUSH32 0xFFFFFFFFFFFFFFFFFFFFFFFFFFFFFFFFFFFFFFFFFFFFFFFFFFFFFFFFFFFFFFFF DUP3 SUB PUSH2 0x407 JUMPI PUSH2 0x406 PUSH2 0x36B JUMP JUMPDEST JUMPDEST PUSH1 0x1 DUP3 ADD SWAP1 POP SWAP2 SWAP1 POP JUMP JUMPDEST PUSH32 0x4E487B7100000000000000000000000000000000000000000000000000000000 PUSH0 MSTORE PUSH1 0x12 PUSH1 0x4 MSTORE PUSH1 0x24 PUSH0 REVERT JUMPDEST PUSH0 PUSH2 0x449 DUP3 PUSH2 0x290 JUMP JUMPDEST SWAP2 POP PUSH2 0x454 DUP4 PUSH2 0x290 JUMP JUMPDEST SWAP3 POP DUP3 PUSH2 0x464 JUMPI PUSH2 0x463 PUSH2 0x412 JUMP JUMPDEST JUMPDEST DUP3 DUP3 DIV SWAP1 POP SWAP3 SWAP2 POP POP JUMP JUMPDEST PUSH32 0x4E487B7100000000000000000000000000000000000000000000000000000000 PUSH0 MSTORE PUSH1 0x41 PUSH1 0x4 MSTORE PUSH1 0x24 PUSH0 REVERT JUMPDEST PUSH0 PUSH2 0x4A6 DUP3 PUSH2 0x290 JUMP JUMPDEST SWAP2 POP PUSH2 0x4B1 DUP4 PUSH2 0x290 JUMP JUMPDEST SWAP3 POP DUP3 DUP3 SUB SWAP1 POP DUP2 DUP2 GT ISZERO PUSH2 0x4C9 JUMPI PUSH2 0x4C8 PUSH2 0x36B JUMP JUMPDEST JUMPDEST SWAP3 SWAP2 POP POP JUMP JUMPDEST PUSH0 PUSH2 0x4D9 DUP3 PUSH2 0x290 JUMP JUMPDEST SWAP2 POP PUSH2 0x4E4 DUP4 PUSH2 0x290 JUMP JUMPDEST SWAP3 POP DUP3 PUSH2 0x4F4 JUMPI PUSH2 0x4F3 PUSH2 0x412 JUMP JUMPDEST JUMPDEST DUP3 DUP3 MOD SWAP1 POP SWAP3 SWAP2 POP POP JUMP JUMPDEST PUSH0 PUSH2 0x509 DUP3 PUSH2 0x290 JUMP JUMPDEST SWAP2 POP PUSH0 DUP3 SUB PUSH2 0x51B JUMPI PUSH2 0x51A PUSH2 0x36B JUMP JUMPDEST JUMPDEST PUSH1 0x1 DUP3 SUB SWAP1 POP SWAP2 SWAP1 POP JUMP JUMPDEST PUSH32 0x4E487B7100000000000000000000000000000000000000000000000000000000 PUSH0 MSTORE PUSH1 0x32 PUSH1 0x4 MSTORE PUSH1 0x24 PUSH0 REVERT INVALID LOG2 PUSH5 0x6970667358 0x22 SLT KECCAK256 0xD9 0xC8 RETURN 0xC 0xD8 DUP10 0xE7 0xF7 SWAP16 0xEA JUMP 0xE1 0xD9 XOR 0xCA SWAP6 DUP3 0x26 PUSH8 0x48B4F9D9A34C6744 0xB2 0x4E 0xD9 0xAE SDIV PUSH5 0x736F6C6343 STOP ADDMOD AND STOP CALLER "
				},
				"gasEstimates": {
					"creation": {
						"codeDepositCost": "283400",
						"executionCost": "44533",
						"totalCost": "327933"
					},
					"external": {
						"data()": "2425",
						"getResult()": "infinite",
						"getResult2()": "infinite",
						"storedData()": "2402"
					},
					"internal": {
						"intToString(uint256)": "infinite",
						"integerToString2(uint256)": "infinite"
					}
				},
				"methodIdentifiers": {
					"data()": "73d4a13a",
					"getResult()": "de292789",
					"getResult2()": "e8da0424",
					"storedData()": "2a1afcd9"
				}
			},
			"storageLayout": {
				"storage": [
					{
						"astId": 4,
						"contract": "chapter-1/SolidityTest.sol:SolidityTest",
						"label": "storedData",
						"offset": 0,
						"slot": "0",
						"type": "t_uint256"
					},
					{
						"astId": 7,
						"contract": "chapter-1/SolidityTest.sol:SolidityTest",
						"label": "data",
						"offset": 0,
						"slot": "1",
						"type": "t_uint256"
					}
				],
				"types": {
					"t_uint256": {
						"encoding": "inplace",
						"label": "uint256",
						"numberOfBytes": "32"
					}
				}
			},
			"userdoc": {
				"kind": "user",
				"methods": {
					"getResult2()": {
						"notice": "The transaction has been reverted to the initial state. Note: The called function should be payable if you send value and the value you send should be less than your current balance. Debug the transaction to get more information."
					}
				},
				"version": 1
			}
		}
	}
}